:020000040800F2
:10000000780D0020C5000008012800089D22000886
:1000100000000000000000000000000000000000E0
:100020000000000000000000000000004B28000855
:100030000000000000000000492800085D280008BA
:10004000D700000800000000D7000008D700000813
:10005000D7000008D7000008D7000008D700000824
:1000600000000000D7000008350E0008D700000887
:10007000D7000008D7000008D700000800000000E3
:10008000352900080000000000000000D70000082B
:1000900000000000D7000008D7000008D7000008C3
:1000A00000000000D700000800000000D700000892
:1000B0000348854600F0CEFC00480047F9380008A8
:1000C000780D00200448804704480047FEE7FEE71B
:1000D000FEE7FEE7FEE7FEE7D9280008B1000008CA
:1000E00030B50B46014600202022012409E00D46D0
:1000F000D5409D4205D31D469540491B2546954058
:1001000040191546521E002DF1DC30BD10B5202AD5
:1001100004DB0846203AD040002110BD0B46D340F6
:10012000D0402024A21A91400843194610BDF8B5CA
:1001300002464A40D40F42004B0052085B089A42E4
:1001400002D20246084611464A0023D0C30D4A0097
:10015000DDB2120EAD1A202D35DA49020126490A08
:10016000F6058A19002C00D0524220214F1B11465F
:10017000B9402A411018C20D9A4221D0002C17D044
:10018000012D08DCDA05801AD20F8019D207DBB204
:1001900000F0FBFAF8BDDA05801A012340001B06C7
:1001A000C01880185A428018CA0F1043490007E04F
:1001B0004908C2071143DA05801A801940088018DF
:1001C00000F0DBFAF8BD61000122511A001BF7E7CD
:1001D0000122D2075140AAE70122D2075040A6E7E8
:1001E000024670B54A40D30FDB0740002DD04A00CD
:1001F0002AD0010E140E000212020919400A520AF6
:100200008418E50104465443000A120A2E045043A0
:10021000A4194219200CC543AA18120C0125AD03DC
:10022000521C521912047F39240400D0521C10436E
:1002300001D44000491EC2B20C06C0092018401C5F
:100240004008802A02D003E0002070BD4008400032
:10025000002900DA0020184370BD0000F0B5074601
:100260000846584087B0C00F049048000E46590019
:1002700040084908BC1A884105D2384631461E4616
:1002800017460B4602465800400810434CD0300D2C
:10029000039040055900400D490D0590401A029009
:1002A000402872DA18030121000B09050843019068
:1002B00004980092002805D00199524200208841FC
:1002C00000920190029840210A1A0199009800F0CA
:1002D00031FA05460C466B4607CB00F03BFAC019D5
:1002E0007141039A0E0D0023D71756401A467A40E3
:1002F000164344D0049A002A2DD0029A012A039A68
:1003000015DC1205C01A914101263605001C714109
:10031000D20F059ED2070093019202962A462346E9
:1003200000F0B7FA07B0F0BD38463146FAE71605D7
:10033000224A0F46B218C01AB74101210905001C14
:100340004F4100187F41114618187941E20F1043C0
:100350006D19644113E0E2076D0815436408C20794
:100360001443039A01261205C01A91413605001C58
:100370007141CE07400830434908C01851412A4610
:10038000234600F079FACDE7FFE704980122400008
:10039000C117121A00238B4104983146C417381A2A
:1003A000A141EEE730B40124E407634030BC55E7D7
:1003B00030B40124E407614030BC4FE70000E0FFA7
:1003C000F0B51FB488B00B990998002448400999EA
:1003D000C00F490049080991C0070B9900904900D6
:1003E00049080B9109990898A64608431CD00B9917
:1003F0000A98084318D0099801244000420D48008B
:10040000410D099824050003000B204309900B9827
:100410000003000B20430B9050181C494018002289
:1004200001901446104605E0002001460DB0F0BDD5
:10043000032801DA034600E003239C46C11A0AAEF2
:100440000AE05F0008ADED5B4F00F75B7D430027DE
:10045000AA187C41491C5B1E6145F2DD410004ABDA
:100460005A522104120C0A43240C401C0828DFDBDA
:10047000019802900099704601910090059B049AA2
:100480000799069800F005FAD0E700000DFCFFFF81
:10049000F0B50C465C4085B0E40FE40703944C00D3
:1004A00000266408590094464908024602962243F1
:1004B00021D062460A431ED06200570D4A000E0347
:1004C0002303550D012402462C492405781B1B0BE0
:1004D000360B401823432643614600901C46501AB1
:1004E000B44103D30098401C009002E09218009899
:1004F0005B41002803DA0020014605B0F0BD002072
:10050000012109050746864611E064461D46141B75
:10051000B54106D36546521BB341744607430C43AD
:10052000A646CD0740084908284392185B41054676
:100530000D43EAD11046184313D060461946504087
:100540007140084306D06046101AB34106D201221A
:10055000002306E000220123DB0702E00122D24350
:100560005310009874460105381C6141029C039D9C
:100570000019694100F080F9BFE70000FD030000A9
:1005800070B54B005B0803430BD04B005C0D00269D
:1005900033466542B341D417AD1AA34102DB0020B4
:1005A000014670BD12053018514170BDC217C10F10
:1005B000504010B54018CA079623002100F0E5F816
:1005C00010BD00000EB5C217C10F5040CA07401839
:1005D0000021054B0293019200910A460B4600F060
:1005E00058F903B000BD0000330400000EB5054902
:1005F0000291002100910A460B46019100F049F951
:1006000003B000BD33040000C20F410040020123CB
:10061000400ADB05D207090EC0187F2901DA002045
:100620007047962903DC9623591AC84001E0963991
:100630008840002AF4D040427047000070B5CD0FCA
:100640004A0009030123090B1B0519430B4BED0756
:100650000024520D9A4201DA002070BD074B34335A
:100660009A4203DC9A1AFFF751FD02E0044951183F
:1006700088402C43F1D0404270BD0000FF030000D1
:10068000CDFBFFFFC20FD207400040080BD0C10DC9
:100690000723DB01C91840020905400A1143C208BB
:1006A00040071143704700200146704710B50029EC
:1006B00004DB0124E40740428C412146002B04DB8B
:1006C0001C460123DB075242A3418B4200D18242E8
:1006D00010BD000010B5002904DB0124E4074042EE
:1006E0008C412146002B04DB1C460123DB075242D0
:1006F000A341994200D1904210BD0000CB0FDB070F
:10070000490010B5490802460A4307D00A0D0724DC
:100710000903E401090B121B002A01DC002010BDB3
:10072000C900440F0C43C100E018D205801800F046
:1007300024F810BD10B5202A04DB0146203A914070
:10074000002010BD914020239C1A0346E34019432A
:10075000904010BD10B5202A06DBCB170846203A82
:100760001041C1170B4306E00B461341D040202433
:10077000A21A91400843194610BD002904DA401C12
:10078000490001D140084000704770B40024050CB6
:1007900005D11024000402D1002921D01124050E16
:1007A00001D100020834050F01D10001241D850F7D
:1007B00001D18000A41C002801DB4000641C00293A
:1007C00008D020252E1B0D46F540A14000D0012168
:1007D0002943084301061B1B000ADB1D02D500202C
:1007E00070BC7047DB05181880180029F8DA401C27
:1007F0004900F5D170BC40084000704770B5024612
:100800004A40D50F40004A00ED0740085208002832
:1008100014D0002A12D0C40DD30D41020120C0050E
:100820005202490A520AE41A091812187D349142F8
:1008300001D3641C00E04900002C01DA002070BDE7
:100840000023914201D3891A03434008490000283C
:10085000F7D100290AD0914202D10121C90705E050
:10086000914201D2012101E00121C943E005C018F4
:100870004019FFF782FF70BD10B5002B08DA002485
:10088000401C614192185B411A4301D1400840006D
:1008900010BDF0B51FB482B005460C0003D0084669
:1008A00002F056FA02E002F053FA203002460090BD
:1008B00021462846FFF73EFF049B059A04460F4653
:1008C00018431143084314D0184610431BD0009816
:1008D00040210A1A18460599FFF718FC05460E46EE
:1008E000009A05990498FFF725FF084305D00120D9
:1008F00004E02046394607B0F0BD0020C11705438B
:100900000E432C43374300990E986305401A79052E
:10091000E40A00220C43FD0A0A3002D500200146F9
:10092000E9E70105101969410C9C0D9D0019694109
:10093000FFF7A2FFDFE7FEB500231A461B1A8A4124
:1009400003DB0020014603B0F0BD4A000D03012186
:100950002D0B0905520D0D43D10702D100186D4131
:10096000521E5110FF31FF310131002704463E462F
:100970003846009701910246012100200905FFF742
:10098000C5FBC3197141F818324684468E464A4168
:1009900061462846611A904104D36046241A954165
:1009A00076461F46241900986D41401C009034285B
:1009B000E1DDF91930467041091BA84103D200223C
:1009C000D243134601E00022134601980105381C6A
:1009D0007141FFF751FFB6E7F8B5054648004008FA
:1009E0000C46284304D06000184A400D904201DDB7
:1009F0002846F8BD15493539884210DC88420BDBA2
:100A0000290D200308432903014305D0E00F1049B5
:100A1000C00741180020F8BD00200146F8BD161A95
:100A20004020821B28462146FFF784FE074600919E
:100A3000284621463246FFF769FB3A46009BFFF7FE
:100A40001BFF3246FFF776FEF8BD000033040000BE
:100A50000000F03F064C0125064E05E0E36807CC98
:100A60002B430C3C98471034B442F7D3FFF724FBD8
:100A7000E03B0008003C0008420005D04200120E96
:100A800052428A4201DB00207047C90508187047AE
:100A9000F8B5514C0620205EFFF794FD00224F4B25
:100AA000FFF7F6FC4E4F4F4B3A46FFF789FC0546E1
:100AB0000E462069FFF7E6FD2A463346FFF7CEFBD8
:100AC000FFF71CFE20610820205EFFF77BFD00225F
:100AD000424BFFF7DDFC3A46424BFFF771FC0546FF
:100AE0000E466069FFF7CEFD2A463346FFF75AFCF3
:100AF000FFF704FE60610021615E04200225205E94
:100B0000655F002900DA49422A1E00DA6A428A1823
:100B1000011E00DA41425118334A8918334A914282
:100B200058D2FFF743FD06462846FFF73FFD314602
:100B300002F05AFDFFF7A6FD00222D4BFFF740FC07
:100B40002C4A2D4BFFF7A4FCFFF7D8FDFFF79AFDC9
:100B50003A462A4BFFF734FC05460E462069FFF75C
:100B600091FD274A274BFFF72BFC2A463346FFF718
:100B700075FBFFF7C3FD20610420205EFFF716FD23
:100B800005460020205EFFF711FD294602F02CFDEE
:100B9000FFF778FD0022164BFFF712FC154A164BA3
:100BA000FFF776FCFFF7AAFDFFF76CFD3A46134B03
:100BB000FFF706FC05460E466069FFF763FD104A25
:100BC000104BFFF7FDFB2A463346FFF747FBFFF7C5
:100BD00095FD6061F8BD00000000002000605040FD
:100BE0007B14AE47E17A843FFFDFFFFFFF5F000029
:100BF0000080664050455254FB210940E17A943F01
:100C00005C8FC2F5285CEF3FF7B500241BE001982C
:100C1000E700C11903C902460B46FFF7D1FB0546A1
:100C200000980E46C11903C902460B46FFF7C8FBE0
:100C30002A463346FFF712FB02F010FF009AD21942
:100C400003C2641CA4B202988442E0D3FEBD00003B
:100C5000FFB597B0044619980025400805901998EB
:100C60000F46401E2E46039013E0AE4205D2E80028
:100C70000119F000001901F0E9FD059802E0291AB8
:100C80008DB24008A842FAD9281885B2761C03987C
:100C9000B6B28642E9DB002008900690079001205A
:100CA00062490A9009910020B9E00A980B9040042B
:100CB000000C0A9000205E49049002900591039078
:100CC00086E0054658E00B98039928180004420B6B
:100CD000B81814920CC8119310920298FFF770FB89
:100CE000149A12901391A0180CC80F9316460599E8
:100CF0000498FFF765FB139B129AFFF753FB0D91C6
:100D00000C9032460F9B03990298FFF759FB064659
:100D10000F91119B109A05990498FFF751FB3246E9
:100D20000F9BFFF79BFAEE000F910E90A11903C9DC
:100D30000D9B0C9AFFF736FB149AA21803C2B9193F
:100D400003C90F9B0E9AFFF72DFB149ABA1803C222
:100D5000A11903C90D9B0C9AFFF780FAA21903C2CF
:100D6000B91903C90F9B0E9AFFF778FA0A46B91909
:100D700005C10A98281885B219988542A3D3079B04
:100D8000069A03990298FFF71BFB05460E46099B3E
:100D9000089A05990498FFF713FB2A463346FFF794
:100DA00001FB05460E46099B089A03990298FFF736
:100DB00007FB0E90029104A80FC8FFF701FB029BEE
:100DC0000E9AFFF74BFA02AA63C20098401C80B249
:100DD0000B990090884200D273E7154D00202946F8
:100DE000099B089AFFF7DEFA0026F6433246FFF722
:100DF000C7FB02F033FEEA02514007910690002241
:100E00002B4609990898FFF729FA3246FFF7B8FBF5
:100E100002F024FE089015980991401CC0B215906C
:100E20001A99884200D240E71BB0F0BD0000F0BF25
:100E30000000F03F10B5024800F020F810BD00009F
:100E40003009002010B504460068054940181421F7
:100E5000FFF746F9800020640248E06310BD0000FF
:100E6000F8FFFDBF000002400146002001E0401CE9
:100E7000C0B20A46C240D207F9D07047F0B4C16B85
:100E80000D6801680C680422066C1346B3402B42BF
:100E90000DD063070BD50B689B0602D40B689343F8
:100EA0000B60016C8A40C16B4A60C16A19E002277D
:100EB000B74002462F4001232032002F15D0A7074C
:100EC00013D50C68A40604D40C680A25AC430C6046
:100ED0005370036C02219940C36B5960002111705B
:100EE000816A002916D0F0BC08470827B7402F4276
:100EF00010D024070ED50C680E25AC430C60046C92
:100F00001946A140C46B6160836353700021117066
:100F1000016BE6E7F0BC704770B5040024D00220F6
:100F2000214620310D464870226811680F48A36899
:100F30000140606826691843E368334318436369D6
:100F40001843A3691843E369184308431060204617
:100F5000FFF778FF0020A062E06220636063A06377
:100F600001216970287070BD012070BD0FC0FFFFA6
:100F7000F8B500238DE001249C40A44622407DD09A
:100F80004C68022C01D0122C0CD1DC08A4002718CC
:100F90003C6A5D07ED0E0F26AE40B4430E69AE40CD
:100FA00026433E6205685E000324B4400F79A543E2
:100FB000BF07BF0FB7402F4307604D68012D05D015
:100FC000022D03D0112D01D0122D0ED18568CF68CE
:100FD000A543B7402F43876047686546AF430D7907
:100FE000ED06ED0F9D403D434560C568A5438C6807
:100FF000B4402C43C4604C68E40049D5284CA56932
:1010000001263543A561A4699D0834400094254C10
:10101000AD002F19BC689D072E0F0F25B540AC43BE
:101020000925ED06A84201D100250FE01E4DA8427A
:1010300001D101250AE01D4DA84201D1022505E09C
:101040001B4DA84201D1032500E00525B5402543ED
:10105000BD60184C25684E689543F60300D51543CE
:10106000256065684E689543B60300D515436560F5
:10107000A5684E689543F60202D500E008E01543E6
:10108000A560E5684E689543B60200D51543E56056
:101090005B1C0A681446DC4000D06CE7F8BD000019
:1010A0000010024000000140000400480008004811
:1010B000000C004800040140002A01D08161704703
:1010C00081627047014800687047000020000020DE
:1010D00070B5024640325378202B1CD11378012B77
:1010E00019D00123137024245470046825689D438B
:1010F0002560046825681E03B543256004682568DB
:101100000D4325600068016819430160202050707C
:101110000020107070BD022070BD70B502464032D4
:101120005378202B1BD11378012B18D00124147075
:101130002423537003681D68A5431D6005682B6850
:101140000F263602B343090219432960006801687B
:1011500021430160202050700020107070BD0220DB
:1011600070BD000070B5040006D025464035687893
:101170000026002802D005E0012070BD2E70204618
:1011800000F0F0F9242068702068016849084900DF
:1011900001600F21606809068843216808612168A1
:1011A0008A680120C00382438A60E1680129A1683E
:1011B00008D021229202114322689160E16802293D
:1011C00002D005E00143F7E701212268C90251601E
:1011D00021684A680F4B1A434A602168CA688243F3
:1011E000CA60616920690843A1690902084321684E
:1011F000C860216AE06908432168086020680168C6
:101200000122114301606664202068702663AE707D
:10121000002070BD00800002FFB50446002083B0AE
:101220002546403501906A78202A7FD1226892694C
:10123000D24312047AD52A78012A77D001222A7063
:1012400024226A7060648F05BF0DE06801280BD00E
:101250000520C002012138188902884321684860AE
:10126000FFF730FF064612E03148F3E70698401CCE
:101270000DD00698002805D0FFF724FF811B0698A3
:10128000814204D9202068700020287043E0206843
:101290008169C943890606D58069C043C00602D565
:1012A0006878A028E2D120688069069BC043C00608
:1012B00000960ED500222021204601F04DF800288E
:1012C00029D121682020C86168700020287007B0EB
:1012D000F0BD00222021204601F03EF800281AD15E
:1012E00020681021C16120682021C1610198411C42
:1012F00001910599884214D1206841680122920326
:10130000114341600096002220212046069B01F0F7
:1013100023F8002802D00320D9E707E02168202025
:10132000C8610199059881428FD3ABE70220CEE7CF
:1013300000200002FFB5054604464035687881B0BC
:1013400020287ED1287801287BD001202870FFF743
:10135000B9FE0746012200901923D103204600F070
:10136000FBFF00283FD1222068701020A8700026C3
:10137000666403986062049860856663618D0920E5
:101380008002FF2903D9FF222285009034E0618D7D
:101390002185009036E02046029900F0CBFF36E030
:1013A00000F0FEFF002803D0606C042847D01AE04C
:1013B0002068416A606A421C62620170208D401E92
:1013C00080B22085618D491E618500281FD1608D06
:1013D00000281CD000970022802120460A9B00F0A4
:1013E000BBFF002802D0032005B0F0BD608DFF28B0
:1013F00005D9FF222285009601231B06CBE7608DCD
:1014000020850096208D0123C2B25B06C3E7608D64
:101410000A9900283A462046C2D100F0FDFF002874
:10142000C2D121682020C86121684A68064B1A4051
:101430004A606870AE702E700020D5E701E0012090
:10144000D2E70220D0E7000000E800FEFFB5054625
:1014500004464035687881B020287ED1287801285C
:101460007BD001202870FFF72DFE07460122009057
:101470001923D103204600F06FFF00283FD121201F
:1014800068701020A8700026666403986062049853
:1014900060856663618D01204003FF2903D9FF2227
:1014A0002285009034E0618D2185009036E0204651
:1014B000029900F03FFF36E000F0D5FF002803D08E
:1014C000606C042847D01AE0606A411C61620178B0
:1014D00020688162608D401E6085208D401E000462
:1014E000000C20851FD1608D00281CD000970022A1
:1014F000802120460A9B00F02FFF002802D0032005
:1015000005B0F0BD608DFF2805D9FF222285009629
:1015100001231B06CBE7608D20850096208D0123DB
:10152000C2B25B06C3E7608D0A9900283A4620469E
:10153000C2D100F071FF0028C2D121682020C8610B
:1015400021684A68064B1A404A606870AE702E7077
:101550000020D5E701E00120D2E70220D0E700001B
:1015600000E800FE00B500680F4987B0884218D136
:1015700003204002009012200190012002900320DD
:1015800003900420049009206946C006FFF7F0FC90
:101590000648C269012149050A43C261C069084081
:1015A000059007B000BD000000540040001002404C
:1015B00002480168491C01607047000020000020BB
:1015C00010B506480168102211430160002000F0A8
:1015D00007F800F017F8002010BD000000200240BE
:1015E00010B5044600F048F97D21C900FEF778FDEA
:1015F00000F04CFB00222146501E00F02FF8002086
:1016000010BD000008B50F488169012211438161B6
:10161000816911400091C26901040A43C261C06935
:101620000022084000901146501F00F017F80022D9
:101630001146901E00F012F800221146501E00F0D4
:101640000DF808BD00100240C106C90E01208840F7
:10165000014908607047000000E100E010B501F0AA
:10166000D1F810BDF8B505460068354CC00352D519
:10167000E0690026C00007D4E16920040143E1616C
:10168000E1690140012600912E480168C90510D486
:101690000168821511430160FFF714FD074604E05D
:1016A000FFF710FDC01B642824D826480068C00539
:1016B000F6D5206A03273F02384020D069683940B8
:1016C00081421CD0206A226AB843012109040A43DE
:1016D0002262226A8A4322622062C0070FD0FFF78B
:1016E000F1FC009008E0FFF7EDFC0099411A164864
:1016F000814201D90320F8BD206A8007F3D5206A12
:101700006968B84308432062002E04D0E1690120D3
:1017100000078143E1612878C00705D0206BA968E4
:1017200080088000084320632878800605D5206B58
:1017300010218843E968084320630020F8BD0000B9
:10174000001002400070004088130000F8B5054604
:1017500044480E460068C007C00FB0420AD2414854
:10176000016849084900314301600068C007C00FA3
:10177000B0425CD128783C4C800705D56068F021E8
:101780008843A968084360602878C0073FD068682C
:10179000012813D02168022813D08907002946DACE
:1017A00061688908890001436160FFF78BFC696803
:1017B000074601290DD0022917D024E021688903AA
:1017C000ECE78901EAE7FFF77DFCC11B274881426E
:1017D00017D860680007800F0128F4D117E0FFF7E1
:1017E00071FCC11B214881420BD860680007800F43
:1017F0000228F4D10BE0FFF765FCC11B1B488142B6
:1018000001D90320F8BD60680007800FF3D11548A7
:101810000168C907C90FB1420BD9016849084900DD
:10182000314301600068C007C00FB04201D0012001
:10183000F8BD2878400706D560680721090288436B
:10184000E9680843606000F02DF86168084A0906FD
:10185000090F515CC840074908600020FFF7C0FE2F
:101860000020F8BD00200240001002408813000054
:10187000A43A0008240000200148006870470000D6
:10188000240000200448054900684968044A4905C5
:10189000490F515CC84070472400002000100240EE
:1018A000B43A000810B512A30FCB88B06C460FC431
:1018B00013A30FCB0FC416494A680C2013460340EC
:1018C0001448042B0FD0082B0DD193021B0F6C462C
:1018D000E45CC96A04AB0907090F595CD20304D55B
:1018E000FEF7FEFB604308B010BD0B486043FAE70B
:1018F00002030405060708090A0B0C0D0E0F101051
:101900000102030405060708090A0B0C0D0E0F104F
:101910000010024000127A0000093D00FEB50446A6
:101920000078D04DC00747D068680007800F0128B5
:1019300007D068680007800F022809D16868C003D3
:1019400006D52868800337D5606800287ED033E04C
:10195000012062680004012A11D08100002A01D010
:10196000052A10D02A6882432A60286888432860A4
:101970006068002814D0FFF7A5FB06460CE0296834
:1019800001432960F4E72A680A432A60F7E7FFF772
:1019900099FB801B64286FD828688003F7D50BE07B
:1019A000FFF790FB064604E0FFF78CFB801B6428E2
:1019B000F1D828688003F7D4207801268007002812
:1019C0003BDA68680007800F07D068680007800F5F
:1019D000022809D16868C00306D42868800715D595
:1019E000E068012832D111E0E0680028286815D0AD
:1019F00030432860FFF766FB074604E0FFF762FB11
:101A0000C01B0228C7D828688007F7D52868F821A6
:101A100088432169C900084328600EE0400840005F
:101A20002860FFF74FFB074604E0FFF74BFBC01BA6
:101A30000228B0D828688007F7D42078000724D57A
:101A4000E0690028686A10D0304300E008E168626D
:101A5000FFF738FB074604E0FFF734FBC01B022802
:101A600099D8686A8007F7D50FE04008400068629F
:101A7000FFF728FB074605E09DE0FFF723FBC01BAF
:101A8000022888D8686A8007F7D42078042740079E
:101A9000002860DA00200190E869C00008D4E969F4
:101AA000B8060143E961E969014001200091019014
:101AB0006D480168C90511D40168821511430160A0
:101AC000FFF700FB009005E0FFF7FCFA0099401AD1
:101AD000642870D864480068C005F5D5A06801285E
:101AE0000AD0002801D0052810D0286A40084000FC
:101AF0002862286AB84301E0286A30432862A06857
:101B0000002812D0FFF7DEFA00900AE0286A384376
:101B10002862F1E7FFF7D6FA0099411A534881424B
:101B200049D8286A8007F5D50DE0FFF7CBFA009079
:101B300006E0FFF7C7FA0099411A4C4881423AD8AB
:101B4000286A8007F5D40198002804D0E9690120AB
:101B500000078143E9612078C00635D56069012816
:101B60000CD0401D686B23D038436863686B400815
:101B700040006863FFF7A6FA064622E0686B384328
:101B80006863686B30436863FFF79CFA064604E0BD
:101B9000FFF798FA801B02285BD8686B8007F7D59F
:101BA000686BF8218843A169C900084368630BE0AA
:101BB000B8436863F4E74CE0FFF784FA801B02281F
:101BC00047D8686B8007F7D4206A002846D0696838
:101BD0000907890F022943D0012636060228286802
:101BE00005D0B0432860FFF76DFA044633E0B043F8
:101BF0002860FFF767FA074604E0FFF763FAC01BA7
:101C0000022826D828688001F7D4E86AE16A00092A
:101C100000010843E862616AA06A084369683D22DE
:101C20001204914308436860286830432860FFF736
:101C300049FA044604E0FFF745FA001B022808D8D9
:101C400028688001F7D509E0FFF73CFA001B02285D
:101C500001D90320FEBD28688001F5D40020FEBD17
:101C60000120FEBD001002400070004088130000FB
:101C7000042204490428086902D09043086170478F
:101C80001043FBE700E000E070470000094910B591
:101C9000401E884201D9012010BD074C606103211C
:101CA000081F00F0AFFD0020A06107202061002088
:101CB00010BD0000FFFFFF0000E000E010B5FFF7DF
:101CC000E3FF10BD7047704770B502462032137FA6
:101CD000012B1BD001231377022454770468656815
:101CE0007026B5436560046865680E6835436560B5
:101CF0000468A5688026B543A560006884684968C3
:101D00000C43846053770020107770BD022070BDB3
:101D100070B5040005D025462035687F002802D024
:101D200006E0012070BD00202877204600F00AF868
:101D300002206877211D206800F004FE01206877EA
:101D4000002070BD08B50068094988420FD10948D4
:101D5000C26902210A43C261C069002208400090A2
:101D600011461020FFF77AFC1020FFF76DFC08BD2C
:101D700000040040001002400268D36801210B43B8
:101D8000D360006802680A43026000207047F8B51B
:101D9000054604462035287F012817D001272F77D4
:101DA00002206877226890687726FF23B0431B02E1
:101DB000984390600868502837D00EDC202857D010
:101DC00006DC00284ED0102840D14EE00220F8BD9D
:101DD000302850D0402839D13CE060282DD07028E0
:101DE00017D001221203801A0ED090422ED1CB6858
:101DF0004A688968206800F0E1FD20688168012256
:101E000092031143816021E020688168C908C900FC
:101E1000F8E7CB684A688968206800F0CFFD216840
:101E20008868B0433043886010E0CA684968206819
:101E300000F0D7FD5021206806E0CA684968206894
:101E400000F0E0FD6021206800F0C3FD6F77002006
:101E50002877F8BDCA684968206800F0C2FD4021B3
:101E60002068F1E700212068EEE710212068EBE709
:101E700020212068E8E730212068E5E7704770B549
:101E80000446006801690025C9438907002915DB5C
:101E9000C168C943890711D4E91E01610120207777
:101EA000206880698007204602D0FFF7E7FF04E042
:101EB00000F096F8204600F094F825772068016934
:101EC000C943490717D4C168C943490713D404213A
:101ED000C943016102202077206880698005800F56
:101EE000204602D0FFF7CAFF04E000F079F8204650
:101EF00000F077F8257720680169C943090716D4EF
:101F0000C168C943090712D40821C94301610420EB
:101F100020772068C0698007204602D0FFF7AEFF17
:101F200004E000F05DF8204600F05BF825772068BB
:101F30000169C943C90617D4C168C943C90613D486
:101F40001021C9430161082020772068C0698005FD
:101F5000800F204602D0FFF791FF04E000F040F828
:101F6000204600F03EF8257720680169C943C9077B
:101F700008D1C168C943C90704D1891E016120463F
:101F800000F030F820680169C943090609D4C16826
:101F9000C943090605D48021C94301612046FFF7E2
:101FA00091FE20680169C943490609D4C168C94343
:101FB000490605D44021C9430161204600F084F858
:101FC00020680169C943890609D4C168C9438906E3
:101FD00005D42021C94301612046FFF774FE70BD7E
:101FE00070477047F8B500682E49884258D100F014
:101FF00063FAFEF74DFD2C4C2069FEF743FBE268C7
:102000002A4DD300EB1803C3521CE260802A44D14E
:102010008021284600F034FE8020FEF725FF03468D
:10202000802223492846FEF713FE402220492846F5
:10203000FEF7EAFD40228021284600F04BFB01F02C
:10204000BFFCFEF7FBFA0646C000291803C9044688
:102050000D46FEF7F3FA0090FEF7A8FA0746204671
:102060002946FEF74BFB3946FEF7B2F81149FEF759
:10207000B7F8FEF7C9FA034631460FA0009A00F000
:1020800057FE0B4A0020C400002114190B460AC455
:10209000401C8028F7DB0448C1600AA000F048FE1D
:1020A000F8BD0000000400400000002030010020C6
:1020B000300500200000C84220092564200925645D
:1020C0002E2564000D0A0000704770B5040005D08D
:1020D00025466035687A002802D006E0012070BDF0
:1020E00000202872204600F027F82420687220681B
:1020F0000168490849000160204600F005FD0128FB
:10210000EDD0606A002802D0204600F08EFC2068E6
:1021100041680122D202914341602068816808220F
:1021200091438160206801680122114301602046CB
:1021300000F0E0FC70BD000070B5064600681A496A
:1021400086B088422DD119488269012189030A434A
:10215000826180690025084005900C2000900220D3
:102160000190032003900120049009200295694604
:10217000C006FEF7FDFE0E480E4C21C42560A5608A
:10218000E56025618020656160600A48083CFEF7D3
:10219000C3FE002803D0CA2107A000F0C7FD746663
:1021A000666206B070BD00000038014000100240B9
:1021B00030000240300900202E2E2F5372632F73FF
:1021C000746D3332663078785F68616C5F6D737000
:1021D0002E630000FFB5064604466036707A83B071
:1021E0000D46202858D1002D0CD00598002809D084
:1021F0000120A1680003814207D12069002804D191
:10220000E80702D0012007B0F0BD307A012843D0A2
:10221000012030720020E06621207072FEF752FF2C
:10222000019027464037059838820598788218E053
:10223000788A401E788206980090002280212046ED
:10224000019B00F0EBFC002818D10120A1680003DD
:10225000814202D12069002812D02168287808859F
:102260006D1C788A0028E3D1069800900022402156
:102270002046019B00F0D2FC002808D00320C2E7D2
:1022800028882168C005C00D0885AD1CE9E720201D
:10229000707200203072B6E70220B4E7FEE70168F2
:1022A0008A69D243920701D400228A620068816958
:1022B000C943C90703D08169012211438161704775
:1022C000F7B5044600680E468069C043C0062CD4AA
:1022D00020272546403520688069C04380060FD5F9
:1022E000701CF8D0002E05D0FEF7ECFE0299401AC3
:1022F000B042F0D96F700020A87028700320FEBD96
:1023000021681020C8612068C7612046FFF7C7FF19
:1023100020684168064A11404160042060646F7083
:102320000020A87028700120FEBD0020FEBD000026
:1023300000E800FE70B50568049C68688905890D91
:102340001204044E11431943304021430143696094
:1023500070BD0000009800FCF8B51C4617460E46FC
:10236000054611E0601C0FD0002C05D0FEF7AAFE38
:102370000699401AA04207D92020403568700020F5
:10238000A87028700320F8BD28688169304688430A
:1023900004D00020B842E5D00020F8BD0120F9E7C4
:1023A000F7B5002720260546044640352AE020469A
:1023B000029A0199FFF784FF002801D00120FEBD99
:1023C00020688069C04380060BD42068C6612068FD
:1023D0004168104A1140416067646E70AF702F70A1
:1023E000ECE70198002806D0FEF76CFE0299411A2E
:1023F0000198814206D9606C304360646E702F7022
:102400000320FEBD20688069C0434007CFD4002070
:10241000FEBD000000E800FE70B516460D460446FD
:102420001AE0324629462046FFF74AFF002801D02D
:10243000012070BD002D04D0FEF744FE801BA84291
:102440000AD9616C2020014361644034607000202F
:10245000A0702070032070BD20688069C043800692
:10246000DFD4002070BD70B516460D4604461CE052
:10247000324629462046FFF723FF002801D00120DD
:1024800070BD681C11D0002D04D0FEF71BFE801B10
:10249000A8420AD9616C2020014361644034607015
:1024A0000020A0702070032070BD20688069C043A8
:1024B0008007DDD4002070BDFEB5304D3B20287074
:1024C0000A2701232A46D0212D480097FEF7BEFF98
:1024D0000020687006236A1CD02129480097FEF767
:1024E00029FF2E46B0787178000208432C4640BA86
:1024F000183C2080E81C01904178027808021043C3
:1025000040BA6080B07971790002084340BAA08077
:102510004320287001232A46D02119480097FEF74E
:1025200095FF0020687006236A1CD021144800978C
:10253000FEF700FFB07871780002084340BA01B29C
:10254000E1800198427803781002184340BA00B243
:102550002081B279737912021A4352BA12B262819F
:10256000029200910190042302220021E35EA25E08
:10257000615E04A000F0DCFBFEBD0000180000203E
:1025800030000020256420092564200925642009E5
:10259000256420092564200925640000F8B5114C44
:1025A0006B202070002666700A2502232246D02167
:1025B0000D480095FEF74AFF1B2020700820607030
:1025C00002232246D02108480095FEF73FFF1C2039
:1025D0002070667002232246D02103480095FEF742
:1025E00035FFF8BD180000203000002010B512485B
:1025F0001049016011494160002181600161416120
:1026000081610122C161C2600162FEF7ABFD002859
:1026100000D0FEE700210848FEF75AFD002800D050
:10262000FEE700210448FEF778FD002800D0FEE711
:1026300010BD000000540040300000200E090020B2
:1026400010B5144886B0124901600024402184600E
:102650004160046110498461C160FFF759FB0028A3
:1026600000D0FEE701200003009069460948FFF70B
:102670008EFB002800D0FEE7049404A905480594C9
:10268000FFF722FB002800D0FEE706B010BD0000D7
:10269000000400407C0000208507000010B50C48B5
:1026A0000A490160E1214902416000218160C16065
:1026B00001618161C1610C22016242614162FFF7E7
:1026C00004FD002800D0FEE710BD000000380140E6
:1026D000BC000020F7B5054600208EB004460990E6
:1026E0000F980126470807977F1C28E0F00029185B
:1026F00002900CC9411908460A9180388039806FD0
:10270000C96FFDF7D3FF18D20A98C3688268029890
:10271000291803C9FDF7DEFF0FD20998FDF752FF14
:10272000029AAB180CCBFDF7C1FF06D2029829180C
:1027300003C9FDF783FF34460990761CB6B2B74251
:10274000D4D8E600A91903C90122FDF719FF7719AA
:102750003A46803A956FD66F2A463346FDF728FEF3
:10276000BA68FB6817460193FDF778FD039108905E
:102770003A4628463146019BFDF714FE039B089A12
:10278000FDF786FE0022D243FDF7FAFE06460F98BB
:102790000F46401EFDF716FF089009911098FDF7AF
:1027A00011FF0546039120460B91FDF71FFF3246AE
:1027B0003B4601910090FDF751FD2A460B9BFDF72A
:1027C000FFFD099B089AFDF763FE079AA24215D107
:1027D0000F98FDF70BFF079103992C4604900D46C7
:1027E00032463B4601990098FDF738FD22462B46BC
:1027F000FDF7E6FD079B049AFDF74AFE11B0F0BD18
:10280000704700008307FF22DB0E9A408907090EFC
:10281000994000280BDA0007000F083883080848A1
:102820009B001818C36993430B43C3617047830827
:1028300004489B001B1818689043084318607047B1
:1028400000ED00E000E400E07047704730B50CC8D0
:1028500030C9083830C008390CC130BD10B5FEF79A
:10286000A7FEFFF72BFA10BD10B594B00220009020
:102870000120039010200024049008946846FFF77C
:102880004DF8002800D0FEE707200C900D940E9420
:1028900000210F940CA8FEF759FF002800D0FEE796
:1028A000212010901294139410A8FEF7DBFE00284C
:1028B00000D0FEE7FEF7E0FF7D21C900FDF710FC28
:1028C000FFF7E4F90420FFF7D3F900221146501E68
:1028D000FEF7C4FE14B010BD134801680122114375
:1028E00001604168114A114041600168104A11407D
:1028F00001600168012292049143016041683F2216
:10290000120491434160C16A09090901C162016B66
:10291000FF22143291430163416B4908490041632E
:102920000021816070470000001002400CB8FF08D1
:10293000FFFFF6FE10B50248FFF7A1FA10BD000038
:102940007C00002070B50268174B184E984201D0E9
:10295000B04203D17024A2434C682243144C154D5D
:10296000984208D0B04206D0134EB04203D0A042E5
:1029700001D0A84204D103263602B243CE683243C6
:102980008026B2434E69324302608A68C2620A6896
:102990008262984203D0A04201D0A84201D10969C5
:1029A00001630121416170BD002C01400004004021
:1029B00000440140004801400020004030B58468D8
:1029C000FF252D021B021343AC430B4323438360BB
:1029D00030BD826870239A430A4307210A4382600C
:1029E000704730B5036A046A64086400046284694D
:1029F000F025AC43120122430A24A3430B43826116
:102A0000036230BD30B5036A1024A34303628469B6
:102A1000036A0F252D031203AC432243A024A343D2
:102A2000090119438261016230BD10B5818CC9076B
:102A300007D001684A6801235B049A43836A1A43FA
:102A40004A60818C890707D501684A6801231B0405
:102A50009A43C36A1A434A60818C490707D50168C3
:102A60004A6801239B049A43036B1A434A60818C92
:102A7000090707D501684A680123DB039A43436BC2
:102A80001A434A60818CC90607D502689168012300
:102A90001B039943836B19439160818C890607D589
:102AA00001688A6801235B039A43C36B1A438A60F7
:102AB000818C490612D503685A6801210905046C06
:102AC0008A4322435A60026C8A4207D102685168E5
:102AD00003235B059943436C19435160818C0906BC
:102AE00007D501684A680123DB04806C9A430243DE
:102AF0004A6010BD0021C16620226030427282729D
:102B00000172084670470000F8B504462369A268C0
:102B1000E6691A43636910213343002026681A438B
:102B200033680546394F3B401343336023685A6886
:102B300003263603B243E66832435A60236AA26929
:102B400026681A43B3680B273F02BB431343B360A5
:102B50002F4A126B9207920F06D0012A08D0022A40
:102B600008D0032A07D101E0002104E0022102E09D
:102B7000042100E008210122E369D203934224D119
:102B800000290CD002290DD0042913D0082917D010
:102B90000125010909010007400F084332E0FEF753
:102BA00071FE09E061681B4A48088018FDF798FA31
:102BB00080B2EEE7FEF776FE616840004A08F4E76F
:102BC0006168012248081204EFE7002908D00229B1
:102BD00009D004290BD008290ED001252846F8BDBC
:102BE000FEF750FE05E061680B4A480806E0FEF774
:102BF00059FE61684A0801E0616848088018FDF7DD
:102C00006FFA80B22168C860E8E70000F369FFFF4F
:102C1000001002400024F40000127A00FFB581B0D9
:102C200017460E4604460A9D1DE0681C1BD0002D69
:102C300005D0FEF747FA0499401AA84213D9206834
:102C40000168FF22A1329143016020688168490830
:102C500049008160202060346072A07200202072E0
:102C6000032005B0F0BD2068C1693046884304D018
:102C70000020B842D9D00020F3E70120F9E7000096
:102C8000F3B581B0074600243EE0FDF79BFC00222F
:102C90001F4BFDF787FB05460E462046FDF792FCCD
:102CA0002A463346FDF7F4FB1A4A1B4BFDF788FB17
:102CB00000F0C8FD194A1A4BFDF782FB194A1A4B5E
:102CC000FDF776FB0E46E2000546B918009203C9EF
:102CD0002A463346FDF774FB009A3346BA1803C2FE
:102CE0000298001BC000C21910460092803A80383A
:102CF000D16F806F2A46FDF763FB009A1346803B35
:102D0000803A9867641CD16702988442BDDBFEBD9F
:102D10000000F03F50455254FB211940713D0AD745
:102D2000A370DD3F48E17A14AE47E13FFEE70000C3
:102D30000FB410B503A9044B044A029800F0ACFB91
:102D400010BC08BC04B01847DD380008280000207B
:102D50002021020C01D010211046020A01D0104699
:102D60000839020901D01046091F820801D0104617
:102D7000891E420801D0881E7047081A7047F0B4B7
:102D8000040C8BB2264682B25E430D0C1046370C03
:102D90005843360480190021794116466E43370C9A
:102DA00036048019794126466E438919F0BC704774
:102DB0004900CA020243100000D004204A0D01D08D
:102DC00001221043044A490D914201D102210843D6
:102DD000012800D105207047FF07000041000802CC
:102DE00000D004200A0E01D001221043090EFF2951
:102DF00001D102210843012800D1052070470000BD
:102E0000F7B596B014460021A160D16017990991D9
:102E10004D00CD496D088D4205DC17996160206039
:102E2000002019B0F0BDC949C94E8D4238DAD32708
:102E300009997F050029C74A1799334617DDFDF721
:102E4000B1FAB54206D0C44AC44BFDF7ABFA616093
:102E5000206009E03A46C14BFDF7A4FAC04AC14BD5
:102E6000FDF7A0FA61602060012019B0F0BDFDF708
:102E7000F5F9B54206D0B84AB84BFDF7EFF96160F5
:102E8000206009E03A46B54BFDF7E8F9B44AB54B86
:102E9000FDF7E4F9616020600020C04319B0F0BD87
:102EA000B1498D42179977DC490049080746AF4A76
:102EB000AF4B0491FDF784FA0022AE4BFDF7CEF93B
:102EC000FDF7BCFB0A90FDF77DFBA24A3346039158
:102ED0000290FDF775FA3A46049BFDF769FA06463B
:102EE0000F469D4A9D4B03990298FDF769FA2A0DFA
:102EF00001250C9232463B46FDF75AFA616020608C
:102F0000032D39D04800410D0C98401A6901691809
:102F10001139814230DA98492801794408960D9098
:102F2000081804974368026803990298FDF748FA65
:102F300002460B460791069004990898FDF732FA6D
:102F400006460F46049B089AFDF732FA079B069A3D
:102F5000FDF728FA05918949049079440D984018A5
:102F6000C368826803990298FDF72AFA059B049AC0
:102F7000FDF718FA6D1CBDE70998002809DA01224F
:102F80006068D207504060600A9819B04042F0BDB6
:102F900002E00A9819B0F0BD09030122090B1205DD
:102FA0000E9089181798109140007549400D4018EF
:102FB0004111C006C00E0D9113902021081A1490E3
:102FC0000020069005250790139800280D980CD036
:102FD000401982006B487844875813998F40101825
:102FE00041681498C1400F4304E0401981006648CD
:102FF0007844475810993846FFF7C1FE06460A91B3
:1030000038460E99FFF7BBFE8A190A9B8A4201D205
:10301000012100E00021C9188C46AF0069467918EB
:103020008B684E68C318834201D2012000E0002063
:1030300096193618002802D0964202D903E096422B
:1030400001D2012000E00020624612184E6068465E
:103050008B60C25128466D1E0028B5DC0121029804
:1030600049074018800F1390029805998000039E2D
:10307000049D0B91FDF7A6FA074630460891FDF72F
:10308000B5FA1D22D243FDF77BFA10900F91284626
:10309000FDF7ACFA3D22D243FDF772FA0E900D9186
:1030A0000B98FDF7A3FA5D22D243FDF769FA0B9165
:1030B0000C900D9B0E9AFDF7D1F80F9B109AFDF71F
:1030C000CDF83A46089BFDF7C9F800250E463A466A
:1030D0002846089BFDF766F90F9B109AFDF762F9E9
:1030E0000D9B0E9AFDF75EF90B9B0C9AFDF760F9AC
:1030F000264A274BFDF764F907460D91254A264BD2
:1031000031462846FDF75CF93A460D9BFDF7A6F8D7
:103110000F4615220C9092061D4B31462846FDF7AE
:103120004FF93B460C9AFDF799F8179A002A05DAF1
:10313000139A524213920122D207514061602060DB
:10314000139819B0F0BD0000FB21E93F7CD9024083
:10315000FB21F93F000040543163621A61B4D03D55
:103160007370032E8A19A33BFB21394183C8C96DB3
:10317000305FE43F0000E03FD20B0000920B000004
:103180000BFCFFFF460B00002C0B0000182D4454D5
:10319000FB21F93D3326A611460B113CF0B51FB4B7
:1031A0004E00F9207608800584B00F46864204DA86
:1031B0000498FDF743FA002838D0049A3B4610469D
:1031C0001946FDF7FDF8044602462C480D460B460D
:1031D0000621784400F05CF822462B46FDF7F0F813
:1031E000019100903946079B069A0498FDF7E8F88C
:1031F0000746029120462946019B009AFDF7E0F818
:103200003A46029BFDF7CEF8074600220091D243D2
:1032100020462946FDF7B4F9194A96420ADA3A4699
:10322000009BFDF7BFF80022164B23E00020154954
:1032300009B0F0BD144A964202DD0024134D03E0AC
:1032400001225205B51A002422462B46FDF7AAF8A2
:103250000646019122462B4600200A49FDF7A2F8B6
:103260000D4604463A463046009B0199FDF79AF810
:1032700022462B46FDF79CF809B0F0BDEA08000095
:103280003333D33F0000F03F0000E93F0000D23F5E
:10329000F8B504464F1EC8000838211815461E46CA
:1032A000086849683A4606239A4310D02A463346AE
:1032B000FDF786F83A46D200083AA3181A687F1E2E
:1032C0005B68FCF7CBFF06223B469343EED1022F0F
:1032D00023D0042F11D0062F2FD12A463346FDF7D5
:1032E0006FF8E36AA26AFCF7B9FF2A463346FDF796
:1032F00067F8636A226AFCF7B1FF2A463346FDF796
:103300005FF8E369A269FCF7A9FF2A463346FDF797
:1033100057F863692269FCF7A1FF2A463346FDF797
:103320004FF8E368A268FCF799FF2A463346FDF799
:1033300047F863682268FCF791FFF8BDF0B51FB449
:10334000054648000C46F9214008890586B08842A8
:103350000BDA28462146FFF72BFD042801D100F0A7
:1033600071F8284621460BB0F0BD2A462346104688
:103370001946FDF725F806460F462A462346FDF76F
:103380001FF800902548019132463B4605217844BC
:10339000FFF77EFF029010980391002829D0204A61
:1033A000204B01990098FDF70BF8049005916846B1
:1033B0000FC8FDF705F8002201910090D24309994A
:1033C0000898FDF7DDF8019B009AFCF7EBFF324609
:1033D0003B46FCF7F5FF099B089AFCF7E3FF059BCA
:1033E000049AFCF7DFFF2A462346FCF7E1FF0BB007
:1033F000F0BD0B4630463946029AFCF7E1FF084A19
:10340000084BFCF72BFF019B009AFCF7D9FF2A46DB
:103410002346FCF723FF0BB0F0BD00002608000098
:10342000495555555555C5BF10B50122FDF7A8F8AA
:1034300010BD002210B5134610461146FDF728F8BE
:1034400010BD0000034A10B500201107FDF798F8E1
:1034500010BD000001FDFFFF10B5FCF768FE10BDB8
:103460005E2110B5C9430807FDF706FB10BD02E059
:1034700008C8121F08C1002AFAD1704770470020FF
:1034800001E001C1121F002AFBD170470149086009
:10349000704700002C000020FFB58DB004460025C9
:1034A00006E025280AD0109A0F999047641C6D1CDD
:1034B00020780028F5D1284611B0F0BD0027012161
:1034C000484A009700E00743641C23780846203BE5
:1034D00098401042F7D120782E2817D104200743B6
:1034E0006078641C2A280CD10E98641C02C80091D4
:1034F0000E900BE000990A22514330394018641CA9
:1035000000902078014630390929F3D92078002825
:10351000D1D0642808D0692806D075281ED0109A0A
:103520000F9990476D1C5BE00A200E99019001C92C
:103530000E91002802DA40422D2102E0390504D51F
:103540002B216A461172012103E0F90704D02021E2
:10355000F7E70BAE0B910DE00021FAE70A200E9978
:10356000019001C90E91F7E70199FCF7B9FD3031DF
:10357000761E31700028F7D103A8801B20300190FF
:10358000780701D5009801E0012000900199884258
:1035900001DD401A00E000200027009006E002A8AC
:1035A000109AC05D0F9990476D1C7F1C0B98874245
:1035B000F5DB04E0109A30200F9990476D1C0099BC
:1035C000481E00900029F5DC05E03078109A761C42
:1035D0000F9990476D1C0199481E01900029F4DC59
:1035E000641C65E709280100F0B50C4601461D2260
:1035F0004B00D2069F18E52605463606620087B0C6
:103600002046B7427DD21D27FF06D719B74278D290
:103610004F0043003E0E1A0EB21A1B2A07DD002986
:1036200002DA754807B0F0BD744807B0F0BD1A263D
:10363000F24217DA002807DA002902DA704807B0E8
:10364000F0BD704807B0F0BD21462846FDF7D6F81A
:103650000446FFF7C3FB042801D1FFF701FF204612
:1036600007B0F0BD9F4211D9002902DA664F674EBC
:1036700001E0674F674E23462C461D460122034654
:10368000D20708465440504019460BE0002807DA9C
:10369000002902DA604F614E04E0614F614E01E0A3
:1036A00000263746421A012352001B069A4230D2A6
:1036B00048405D490BD5BF20000603903846FCF713
:1036C00087FD074659493046FCF782FD0AE03F2056
:1036D000000603903846FCF72AFD0746534930465A
:1036E000FCF725FD064628460399FCF779FD21469F
:1036F000FCF71DFD009021460398FCF771FD29465B
:1037000000E03AE0FCF768FD0099FDF777F8044621
:1037100004E021462846FDF771F804460146FCF70F
:103720005FFD43490090FCF75BFD4249FCF7FFFC5D
:103730000099FCF755FD4049FCF7F9FC0099FCF7AE
:103740004FFD3E49FCF7F3FC0099FCF749FD3C496D
:10375000FCF7EDFC054620460099FCF741FD2946A3
:10376000FCF73EFD3146FCF7E2FC2146FCF7DFFCAE
:103770003946FCF7DCFC07B0F0BDFF263606B34245
:1037800001D8B24205D901462846FFF765FE07B0C9
:10379000F0BD2F4607437F000AD0B3420CD1B2429E
:1037A0000AD101229207904391430D4604462FE728
:1037B000FF22D2051043F9E7B34208D0460006D0F5
:1037C0005340F4D4002A08DB9F26F60507E0FF22C9
:1037D000D2051143E00FC0071AE75F26F605314610
:1037E0002846FCF7FDFC054631462046FCF7F8FC70
:1037F000044629460CE70000DB0FC9BFDB0FC93FB9
:10380000DB0F49C0DB0F49400000C9BF22AAFDB948
:103810000000C93F22AAFD39000049C022AA7DBA92
:103820000000494022AA7D3A0060ED3EC30ACE372F
:103830002DAD65BD8FB8D53D0FB511BE61C84C3EED
:10384000A8AAAABE00B54A00224B520887B09A42E5
:1038500002DC0022134625E01F4B9A4208D10028C3
:1038600008D10120FFF712FEFFF7E3FD07B000BD0E
:103870009A4203DBFFF7D8FD07B000BD02AAFFF7AD
:10388000BFFA8107890F0BD0012001290ED0022930
:1038900016D0009002A80FC8FFF750FD07B000BD7A
:1038A00002A80FC8FFF77AFC07B000BD009002A87D
:1038B0000FC8FFF743FD0122D207514007B000BDFA
:1038C00002A80FC8FFF76AFC0122D207514007B0D7
:1038D00000BD0000FB21E93F0000F07F38B5044641
:1038E000684604700223012269460248FEF772FC12
:1038F000204638BDBC00002086B0FDF761FEFEF713
:10390000B3FF2A4C61690120400401436161616990
:103910000140059161694000014361616169244E84
:1039200001400591002202213046FDF7C5FB002130
:1039300002200125029103910090019569463046CD
:10394000FDF716FB6069284360616069002228402A
:10395000009011460A20FDF781FE0A20FDF774FE53
:10396000FEF744FEFEF76CFEFEF798FE114A124B7E
:103970000020C10000245618254630C6591830C111
:10398000401C8028F5DB0A23012221460B48FDF765
:1039900043FC002803D0641CE4B2FF2CF3D3FEF7F1
:1039A000FDFD06484C30FEF7E7F9FEE70010024047
:1039B00000040048300100203005002030000020C5
:1039C000F0B513B406460199FDF706F804460D4616
:1039D00002460B4630460199FCF7E4FC0646019886
:1039E0001B4B0F4600280CDA00223046FCF75EFE27
:1039F0000CD90022174B30463946FCF76BFE1DD21E
:103A000014E000223046FCF751FE08D20022124B8F
:103A100020462946FCF7C6FC04460D460EE000226F
:103A20000C4B30463946FCF755FE07D800220A4BAE
:103A300020462946FCF712FC04460D46019A69000F
:103A40004908D20FD2072046114303B0F0BD000051
:103A50000000E0BF0000E03F0000F03FF8B5064680
:103A60000C46FCF768FF051E0F4600D001200143FD
:103A700049000B484908411AC90F0DD0002E01D04A
:103A8000012100E000210C4361004908401AC00FE9
:103A900002D10120FFF7FAFC28463946F8BD0000A4
:103AA0000000F07F0000000000000000010203049D
:103AB00006070809000000000102030400000000DE
:103AC0004C5555555555A53F7751C1166CC156BF3C
:103AD0009015CB19A001FA3EAD529C804F7E92BE4C
:103AE000C4B1B4BD9EEE213ED43888BEE9FAA8BD6B
:103AF00000004054FB21F93F3163621A61B4D03DAC
:103B00000000601A61B4D03D7370032E8A19A33B84
:103B10000000002E8A19A33BC14920259A837B39D6
:103B200000000000000000006E83F9A22915444E39
:103B3000D15727FCC0DD34F5999562DB4190433CB9
:103B4000AB6351FE61C5BBDE3A6E24B7E0D24D4295
:103B5000EA2E49061C92D1091CEB1DFE3EA729B195
:103B6000F53582E88444BB2E26709CE9417E5FB423
:103B700039D69139F43953838B5F849C3B28F9BD46
:103B8000FF97F81F0F9805DE8B112FEF1F6D0A5A54
:103B9000CF7E366DB709CB27663F464F2DEA5F9E35
:103BA000C7BA27757BF1E5EBF739073DEA92528AF0
:103BB000B15FFB6B085D8D1FA6F810111111813FDD
:103BC000D561C119A0012ABF7DFEB157E31DC73ED3
:103BD000EB9C2B8AE6E55ABE7CD5CF5A3AD9E53D17
:103BE000003C000800000020300000006E34000897
:103BF000303C000830000020480D00007E340008F2
:103C000000000000000000000000000000000000B4
:103C100000000000000000000000000000000000A4
:103C20000000000000127A00000000000000000008
:04000005080000B13E
:00000001FF
